{
  "contractName": "UserData",
  "abi": [
    {
      "constant": false,
      "inputs": [
        {
          "internalType": "address",
          "name": "_userAddress",
          "type": "address"
        },
        {
          "internalType": "string",
          "name": "_jsonData",
          "type": "string"
        }
      ],
      "name": "setUserData",
      "outputs": [],
      "payable": false,
      "stateMutability": "nonpayable",
      "type": "function"
    },
    {
      "constant": false,
      "inputs": [
        {
          "internalType": "address",
          "name": "_userAddress",
          "type": "address"
        },
        {
          "internalType": "address",
          "name": "_companyAddress",
          "type": "address"
        },
        {
          "internalType": "bool",
          "name": "_allow",
          "type": "bool"
        }
      ],
      "name": "setCompanyAllow",
      "outputs": [],
      "payable": false,
      "stateMutability": "nonpayable",
      "type": "function"
    },
    {
      "constant": false,
      "inputs": [
        {
          "internalType": "address",
          "name": "_userAddress",
          "type": "address"
        },
        {
          "internalType": "string",
          "name": "_jsonData",
          "type": "string"
        }
      ],
      "name": "updateUserData",
      "outputs": [],
      "payable": false,
      "stateMutability": "nonpayable",
      "type": "function"
    },
    {
      "constant": true,
      "inputs": [
        {
          "internalType": "address",
          "name": "_userAddress",
          "type": "address"
        }
      ],
      "name": "getUserData",
      "outputs": [
        {
          "internalType": "string",
          "name": "_jsonData",
          "type": "string"
        }
      ],
      "payable": false,
      "stateMutability": "view",
      "type": "function"
    }
  ],
  "bytecode": "0x608060405234801561001057600080fd5b50610a3d806100206000396000f3fe608060405234801561001057600080fd5b506004361061004c5760003560e01c806315fe1066146100515780632364ad0c146100c1578063db5d758b1461015a578063ffc9896b146101f3575b600080fd5b6100bf6004803603606081101561006757600080fd5b81019080803573ffffffffffffffffffffffffffffffffffffffff169060200190929190803573ffffffffffffffffffffffffffffffffffffffff1690602001909291908035151590602001909291905050506102b0565b005b610158600480360360408110156100d757600080fd5b81019080803573ffffffffffffffffffffffffffffffffffffffff1690602001909291908035906020019064010000000081111561011457600080fd5b82018360208201111561012657600080fd5b8035906020019184600183028401116401000000008311171561014857600080fd5b90919293919293905050506103cd565b005b6101f16004803603604081101561017057600080fd5b81019080803573ffffffffffffffffffffffffffffffffffffffff169060200190929190803590602001906401000000008111156101ad57600080fd5b8201836020820111156101bf57600080fd5b803590602001918460018302840111640100000000831117156101e157600080fd5b90919293919293905050506104a4565b005b6102356004803603602081101561020957600080fd5b81019080803573ffffffffffffffffffffffffffffffffffffffff1690602001909291905050506106d0565b6040518080602001828103825283818151815260200191508051906020019080838360005b8381101561027557808201518184015260208101905061025a565b50505050905090810190601f1680156102a25780820380516001836020036101000a031916815260200191505b509250505060405180910390f35b3373ffffffffffffffffffffffffffffffffffffffff168373ffffffffffffffffffffffffffffffffffffffff1614610334576040517f08c379a00000000000000000000000000000000000000000000000000000000081526004018080602001828103825260298152602001806109bd6029913960400191505060405180910390fd5b80600160008573ffffffffffffffffffffffffffffffffffffffff1673ffffffffffffffffffffffffffffffffffffffff16815260200190815260200160002060008473ffffffffffffffffffffffffffffffffffffffff1673ffffffffffffffffffffffffffffffffffffffff16815260200190815260200160002060006101000a81548160ff021916908315150217905550505050565b3373ffffffffffffffffffffffffffffffffffffffff168373ffffffffffffffffffffffffffffffffffffffff1614610451576040517f08c379a00000000000000000000000000000000000000000000000000000000081526004018080602001828103825260238152602001806109e66023913960400191505060405180910390fd5b81816000808673ffffffffffffffffffffffffffffffffffffffff1673ffffffffffffffffffffffffffffffffffffffff168152602001908152602001600020919061049e9291906108dc565b50505050565b6000808473ffffffffffffffffffffffffffffffffffffffff1673ffffffffffffffffffffffffffffffffffffffff1681526020019081526020016000208054600181600116156101000203166002900480601f0160208091040260200160405190810160405280929190818152602001828054600181600116156101000203166002900480156105765780601f1061054b57610100808354040283529160200191610576565b820191906000526020600020905b81548152906001019060200180831161055957829003601f168201915b5050505050606081905060008151146105f7576040517f08c379a00000000000000000000000000000000000000000000000000000000081526004018080602001828103825260138152602001807f5573657220616c7265616479206578697374730000000000000000000000000081525060200191505060405180910390fd5b3373ffffffffffffffffffffffffffffffffffffffff168573ffffffffffffffffffffffffffffffffffffffff161461067b576040517f08c379a00000000000000000000000000000000000000000000000000000000081526004018080602001828103825260238152602001806109e66023913960400191505060405180910390fd5b83836000808873ffffffffffffffffffffffffffffffffffffffff1673ffffffffffffffffffffffffffffffffffffffff16815260200190815260200160002091906106c89291906108dc565b505050505050565b60603373ffffffffffffffffffffffffffffffffffffffff168273ffffffffffffffffffffffffffffffffffffffff16148061071257506107118233610848565b5b610767576040517f08c379a000000000000000000000000000000000000000000000000000000000815260040180806020018281038252603b815260200180610982603b913960400191505060405180910390fd5b6000808373ffffffffffffffffffffffffffffffffffffffff1673ffffffffffffffffffffffffffffffffffffffff1681526020019081526020016000208054600181600116156101000203166002900480601f0160208091040260200160405190810160405280929190818152602001828054600181600116156101000203166002900480156108395780601f1061080e57610100808354040283529160200191610839565b820191906000526020600020905b81548152906001019060200180831161081c57829003601f168201915b50505050509050809050919050565b6000600160008473ffffffffffffffffffffffffffffffffffffffff1673ffffffffffffffffffffffffffffffffffffffff16815260200190815260200160002060008373ffffffffffffffffffffffffffffffffffffffff1673ffffffffffffffffffffffffffffffffffffffff16815260200190815260200160002060009054906101000a900460ff16905092915050565b828054600181600116156101000203166002900490600052602060002090601f016020900481019282601f1061091d57803560ff191683800117855561094b565b8280016001018555821561094b579182015b8281111561094a57823582559160200191906001019061092f565b5b509050610958919061095c565b5090565b61097e91905b8082111561097a576000816000905550600101610962565b5090565b9056fe4f6e6c79207468652075736572206f722074686520616c6c6f77656420636f6d70616e792063616e206163636573732075736572277320646174614f6e6c792074686520757365722063616e2075706461746520746865697220616c6c6f77206c6973744f6e6c792074686520757365722063616e2075706461746520746865697220696e666fa265627a7a72315820ba88cd93fc2509adabec3aa4e0740fc8e5b99bc5bde7a0899dab80dab0f8995564736f6c63430005100032",
  "source": "// SPDX-License-Identifier: MIT\npragma solidity >=0.4.22 <0.9.0;\n\n/*\nContract used for storing and retrieving user data\n*/\n\ncontract UserData {\n    // Mapping of user addresses to user data\n    mapping (address => string) userDataMap;\n    mapping (address => mapping(address => bool)) userCompanyAllow;\n\n    // Modifier used to check if there's already an user entry in an address\n    modifier emptyUser(string memory _jsonData) {\n        bytes memory stringTest = bytes(_jsonData);\n        require(stringTest.length == 0, \"User already exists\");\n        _;\n    }\n\n    // setUserData(): function used to save user data (name, phone, email etc.) to the blockchain. The data is stored in the userDataMap mapping\n    function setUserData(address _userAddress, string calldata _jsonData) emptyUser (userDataMap[_userAddress]) external {\n        require(_userAddress == msg.sender, \"Only the user can update their info\");\n        userDataMap[_userAddress] = _jsonData; // Update user data (overwrite existing data)\n    }\n\n    // setCompanyAllow(): function used to allow a user to access a company's data\n    function setCompanyAllow(address _userAddress, address _companyAddress, bool _allow) external {\n        require(_userAddress == msg.sender, \"Only the user can update their allow list\");\n        userCompanyAllow[_userAddress][_companyAddress] = _allow;\n    }\n\n    // updateUserData(): function used to update user data (name, phone, email etc.) to the blockchain. The data is stored in the userDataMap mapping\n    function updateUserData(address _userAddress, string calldata _jsonData) external {\n        require(_userAddress == msg.sender, \"Only the user can update their info\");\n        userDataMap[_userAddress] = _jsonData; // Update user data (overwrite existing data)\n    }\n\n    // isCompanyAllowed(): function used to check if a company is allowed to access user data\n    function isCompanyAllowedOnUser(address _userAddress, address _companyAddress) private view returns (bool){\n        return userCompanyAllow[_userAddress][_companyAddress];\n    }\n\n    // getUserData(): function used to retrieve user data (name, phone, email etc.) from the blockchain. The data is retrieved from the userDataMap mapping\n    function getUserData(address _userAddress) external view returns(string memory _jsonData) {\n        require (\n            _userAddress == msg.sender || isCompanyAllowedOnUser(_userAddress, msg.sender), \n            \"Only the user or the allowed company can access user's data\");\n\n        _jsonData = userDataMap[_userAddress];\n\n        return _jsonData;\n    }\n}",
  "sourcePath": "/home/haltz/Downloads/hackathon-brasa-2022/Code/brasa-hacks-2022/contracts/UserData.sol",
  "compiler": {
    "name": "solc",
    "version": "0.5.16+commit.9c3226ce.Emscripten.clang"
  },
  "schemaVersion": "3.4.6",
  "updatedAt": "2022-04-03T22:46:10.421Z",
  "networkType": "ethereum",
  "devdoc": {
    "methods": {}
  },
  "userdoc": {
    "methods": {}
  }
}